{
  "address": "0xE9E29CB769786360D9FD55743478BC8fA0b87542",
  "abi": [
    {
      "inputs": [
        {
          "internalType": "address",
          "name": "_unswapV2Rt",
          "type": "address"
        },
        {
          "internalType": "address",
          "name": "_chWallAddr",
          "type": "address"
        }
      ],
      "stateMutability": "nonpayable",
      "type": "constructor"
    },
    {
      "anonymous": false,
      "inputs": [
        {
          "indexed": true,
          "internalType": "address",
          "name": "owner",
          "type": "address"
        },
        {
          "indexed": true,
          "internalType": "address",
          "name": "spender",
          "type": "address"
        },
        {
          "indexed": false,
          "internalType": "uint256",
          "name": "value",
          "type": "uint256"
        }
      ],
      "name": "Approval",
      "type": "event"
    },
    {
      "anonymous": false,
      "inputs": [
        {
          "indexed": false,
          "internalType": "uint256",
          "name": "minTokensBeforeSwap",
          "type": "uint256"
        }
      ],
      "name": "MinTokensBeforeSwapUpdated",
      "type": "event"
    },
    {
      "anonymous": false,
      "inputs": [
        {
          "indexed": true,
          "internalType": "address",
          "name": "previousOwner",
          "type": "address"
        },
        {
          "indexed": true,
          "internalType": "address",
          "name": "newOwner",
          "type": "address"
        }
      ],
      "name": "OwnershipTransferred",
      "type": "event"
    },
    {
      "anonymous": false,
      "inputs": [
        {
          "indexed": false,
          "internalType": "uint256",
          "name": "tokensSwapped",
          "type": "uint256"
        },
        {
          "indexed": false,
          "internalType": "uint256",
          "name": "ethReceived",
          "type": "uint256"
        },
        {
          "indexed": false,
          "internalType": "uint256",
          "name": "tokensIntoLiqudity",
          "type": "uint256"
        }
      ],
      "name": "SwapAndLiquify",
      "type": "event"
    },
    {
      "anonymous": false,
      "inputs": [
        {
          "indexed": false,
          "internalType": "bool",
          "name": "enabled",
          "type": "bool"
        }
      ],
      "name": "SwapAndLiquifyEnabledUpdated",
      "type": "event"
    },
    {
      "anonymous": false,
      "inputs": [
        {
          "indexed": true,
          "internalType": "address",
          "name": "from",
          "type": "address"
        },
        {
          "indexed": true,
          "internalType": "address",
          "name": "to",
          "type": "address"
        },
        {
          "indexed": false,
          "internalType": "uint256",
          "name": "value",
          "type": "uint256"
        }
      ],
      "name": "Transfer",
      "type": "event"
    },
    {
      "inputs": [],
      "name": "_charityFee",
      "outputs": [
        {
          "internalType": "uint256",
          "name": "",
          "type": "uint256"
        }
      ],
      "stateMutability": "view",
      "type": "function"
    },
    {
      "inputs": [],
      "name": "_liquidityFee",
      "outputs": [
        {
          "internalType": "uint256",
          "name": "",
          "type": "uint256"
        }
      ],
      "stateMutability": "view",
      "type": "function"
    },
    {
      "inputs": [],
      "name": "_maxTxAmount",
      "outputs": [
        {
          "internalType": "uint256",
          "name": "",
          "type": "uint256"
        }
      ],
      "stateMutability": "view",
      "type": "function"
    },
    {
      "inputs": [],
      "name": "_taxFee",
      "outputs": [
        {
          "internalType": "uint256",
          "name": "",
          "type": "uint256"
        }
      ],
      "stateMutability": "view",
      "type": "function"
    },
    {
      "inputs": [
        {
          "internalType": "address",
          "name": "owner",
          "type": "address"
        },
        {
          "internalType": "address",
          "name": "spender",
          "type": "address"
        }
      ],
      "name": "allowance",
      "outputs": [
        {
          "internalType": "uint256",
          "name": "",
          "type": "uint256"
        }
      ],
      "stateMutability": "view",
      "type": "function"
    },
    {
      "inputs": [
        {
          "internalType": "address",
          "name": "spender",
          "type": "address"
        },
        {
          "internalType": "uint256",
          "name": "amount",
          "type": "uint256"
        }
      ],
      "name": "approve",
      "outputs": [
        {
          "internalType": "bool",
          "name": "",
          "type": "bool"
        }
      ],
      "stateMutability": "nonpayable",
      "type": "function"
    },
    {
      "inputs": [
        {
          "internalType": "address",
          "name": "account",
          "type": "address"
        }
      ],
      "name": "balanceOf",
      "outputs": [
        {
          "internalType": "uint256",
          "name": "",
          "type": "uint256"
        }
      ],
      "stateMutability": "view",
      "type": "function"
    },
    {
      "inputs": [],
      "name": "decimals",
      "outputs": [
        {
          "internalType": "uint8",
          "name": "",
          "type": "uint8"
        }
      ],
      "stateMutability": "view",
      "type": "function"
    },
    {
      "inputs": [
        {
          "internalType": "address",
          "name": "spender",
          "type": "address"
        },
        {
          "internalType": "uint256",
          "name": "subtractedValue",
          "type": "uint256"
        }
      ],
      "name": "decreaseAllowance",
      "outputs": [
        {
          "internalType": "bool",
          "name": "",
          "type": "bool"
        }
      ],
      "stateMutability": "nonpayable",
      "type": "function"
    },
    {
      "inputs": [
        {
          "internalType": "uint256",
          "name": "tAmount",
          "type": "uint256"
        }
      ],
      "name": "deliver",
      "outputs": [],
      "stateMutability": "nonpayable",
      "type": "function"
    },
    {
      "inputs": [
        {
          "internalType": "address",
          "name": "account",
          "type": "address"
        }
      ],
      "name": "excludeFromFee",
      "outputs": [],
      "stateMutability": "nonpayable",
      "type": "function"
    },
    {
      "inputs": [
        {
          "internalType": "address",
          "name": "account",
          "type": "address"
        }
      ],
      "name": "excludeFromReward",
      "outputs": [],
      "stateMutability": "nonpayable",
      "type": "function"
    },
    {
      "inputs": [
        {
          "internalType": "address",
          "name": "account",
          "type": "address"
        }
      ],
      "name": "includeInFee",
      "outputs": [],
      "stateMutability": "nonpayable",
      "type": "function"
    },
    {
      "inputs": [
        {
          "internalType": "address",
          "name": "account",
          "type": "address"
        }
      ],
      "name": "includeInReward",
      "outputs": [],
      "stateMutability": "nonpayable",
      "type": "function"
    },
    {
      "inputs": [
        {
          "internalType": "address",
          "name": "spender",
          "type": "address"
        },
        {
          "internalType": "uint256",
          "name": "addedValue",
          "type": "uint256"
        }
      ],
      "name": "increaseAllowance",
      "outputs": [
        {
          "internalType": "bool",
          "name": "",
          "type": "bool"
        }
      ],
      "stateMutability": "nonpayable",
      "type": "function"
    },
    {
      "inputs": [
        {
          "internalType": "address",
          "name": "account",
          "type": "address"
        }
      ],
      "name": "isExcludedFromFee",
      "outputs": [
        {
          "internalType": "bool",
          "name": "",
          "type": "bool"
        }
      ],
      "stateMutability": "view",
      "type": "function"
    },
    {
      "inputs": [
        {
          "internalType": "address",
          "name": "account",
          "type": "address"
        }
      ],
      "name": "isExcludedFromReward",
      "outputs": [
        {
          "internalType": "bool",
          "name": "",
          "type": "bool"
        }
      ],
      "stateMutability": "view",
      "type": "function"
    },
    {
      "inputs": [],
      "name": "name",
      "outputs": [
        {
          "internalType": "string",
          "name": "",
          "type": "string"
        }
      ],
      "stateMutability": "view",
      "type": "function"
    },
    {
      "inputs": [],
      "name": "owner",
      "outputs": [
        {
          "internalType": "address",
          "name": "",
          "type": "address"
        }
      ],
      "stateMutability": "view",
      "type": "function"
    },
    {
      "inputs": [
        {
          "internalType": "uint256",
          "name": "tAmount",
          "type": "uint256"
        },
        {
          "internalType": "bool",
          "name": "deductTransferFee",
          "type": "bool"
        }
      ],
      "name": "reflectionFromToken",
      "outputs": [
        {
          "internalType": "uint256",
          "name": "",
          "type": "uint256"
        }
      ],
      "stateMutability": "view",
      "type": "function"
    },
    {
      "inputs": [],
      "name": "renounceOwnership",
      "outputs": [],
      "stateMutability": "nonpayable",
      "type": "function"
    },
    {
      "inputs": [
        {
          "internalType": "uint256",
          "name": "charityFee",
          "type": "uint256"
        }
      ],
      "name": "setCharityFeePercent",
      "outputs": [],
      "stateMutability": "nonpayable",
      "type": "function"
    },
    {
      "inputs": [
        {
          "internalType": "uint256",
          "name": "liquidityFee",
          "type": "uint256"
        }
      ],
      "name": "setLiquidityFeePercent",
      "outputs": [],
      "stateMutability": "nonpayable",
      "type": "function"
    },
    {
      "inputs": [
        {
          "internalType": "uint256",
          "name": "maxTxPercent",
          "type": "uint256"
        }
      ],
      "name": "setMaxTxPercent",
      "outputs": [],
      "stateMutability": "nonpayable",
      "type": "function"
    },
    {
      "inputs": [
        {
          "internalType": "bool",
          "name": "_enabled",
          "type": "bool"
        }
      ],
      "name": "setSwapAndLiquifyEnabled",
      "outputs": [],
      "stateMutability": "nonpayable",
      "type": "function"
    },
    {
      "inputs": [
        {
          "internalType": "uint256",
          "name": "taxFee",
          "type": "uint256"
        }
      ],
      "name": "setTaxFeePercent",
      "outputs": [],
      "stateMutability": "nonpayable",
      "type": "function"
    },
    {
      "inputs": [],
      "name": "swapAndLiquifyEnabled",
      "outputs": [
        {
          "internalType": "bool",
          "name": "",
          "type": "bool"
        }
      ],
      "stateMutability": "view",
      "type": "function"
    },
    {
      "inputs": [],
      "name": "symbol",
      "outputs": [
        {
          "internalType": "string",
          "name": "",
          "type": "string"
        }
      ],
      "stateMutability": "view",
      "type": "function"
    },
    {
      "inputs": [
        {
          "internalType": "uint256",
          "name": "rAmount",
          "type": "uint256"
        }
      ],
      "name": "tokenFromReflection",
      "outputs": [
        {
          "internalType": "uint256",
          "name": "",
          "type": "uint256"
        }
      ],
      "stateMutability": "view",
      "type": "function"
    },
    {
      "inputs": [],
      "name": "totalFees",
      "outputs": [
        {
          "internalType": "uint256",
          "name": "",
          "type": "uint256"
        }
      ],
      "stateMutability": "view",
      "type": "function"
    },
    {
      "inputs": [],
      "name": "totalSupply",
      "outputs": [
        {
          "internalType": "uint256",
          "name": "",
          "type": "uint256"
        }
      ],
      "stateMutability": "view",
      "type": "function"
    },
    {
      "inputs": [
        {
          "internalType": "address",
          "name": "recipient",
          "type": "address"
        },
        {
          "internalType": "uint256",
          "name": "amount",
          "type": "uint256"
        }
      ],
      "name": "transfer",
      "outputs": [
        {
          "internalType": "bool",
          "name": "",
          "type": "bool"
        }
      ],
      "stateMutability": "nonpayable",
      "type": "function"
    },
    {
      "inputs": [
        {
          "internalType": "address",
          "name": "sender",
          "type": "address"
        },
        {
          "internalType": "address",
          "name": "recipient",
          "type": "address"
        },
        {
          "internalType": "uint256",
          "name": "amount",
          "type": "uint256"
        }
      ],
      "name": "transferFrom",
      "outputs": [
        {
          "internalType": "bool",
          "name": "",
          "type": "bool"
        }
      ],
      "stateMutability": "nonpayable",
      "type": "function"
    },
    {
      "inputs": [
        {
          "internalType": "address",
          "name": "newOwner",
          "type": "address"
        }
      ],
      "name": "transferOwnership",
      "outputs": [],
      "stateMutability": "nonpayable",
      "type": "function"
    },
    {
      "inputs": [],
      "name": "uniswapV2Pair",
      "outputs": [
        {
          "internalType": "address",
          "name": "",
          "type": "address"
        }
      ],
      "stateMutability": "view",
      "type": "function"
    },
    {
      "inputs": [],
      "name": "uniswapV2Router",
      "outputs": [
        {
          "internalType": "contract IUniswapV2Router02",
          "name": "",
          "type": "address"
        }
      ],
      "stateMutability": "view",
      "type": "function"
    },
    {
      "stateMutability": "payable",
      "type": "receive"
    }
  ],
  "transactionHash": "0xf568ebdb68f218894cdb58f2cd36fcebdeb86250e7123093ceb02d92bfa81ae0",
  "args": [
    "0xD8D37bA976D29D55c70Bc4f025Da14BD3013CDda",
    "0x8935737fe9f2ba410d48a625575858cb9b5bf279"
  ],
  "solcInputHash": "ca828ee38bf7e9ce0bd04ee84034431b",
  "bytecode": "0x67016345785d8a000060085567012a74c07c69ffff19600955610100604052600a60c081905269151213d494c81351505160b21b60e09081526200004791600b9190620003dc565b50604080518082019091526004808252631351505160e21b60209092019182526200007591600c91620003dc565b50600d805460ff191660081790556002600e819055600f8190556005601081905560115560128190556013556014805461ff00191661010017905567016345785d8a0000601555652d79883d2000601655348015620000d357600080fd5b5060405162002f6338038062002f6383398181016040526040811015620000f957600080fd5b50805160209091015160006200010e620003c9565b600080546001600160a01b0319166001600160a01b0383169081178255604051929350917f8be0079c531659141344cd1fd0a4f28419497f9722a3daafe3b4186f6b6457e0908290a3506009546001600062000169620003cd565b6001600160a01b039081168252602080830193909352604091820160002093909355600780546001600160a01b031916858516179055805163c45a015560e01b81529051859384169263c45a01559260048082019391829003018186803b158015620001d457600080fd5b505afa158015620001e9573d6000803e3d6000fd5b505050506040513d60208110156200020057600080fd5b5051604080516339d94ae160e11b815290516001600160a01b039283169263c9c65396923092918616916373b295c291600480820192602092909190829003018186803b1580156200025157600080fd5b505afa15801562000266573d6000803e3d6000fd5b505050506040513d60208110156200027d57600080fd5b5051604080516001600160e01b031960e086901b1681526001600160a01b0393841660048201529290911660248301525160448083019260209291908290030181600087803b158015620002d057600080fd5b505af1158015620002e5573d6000803e3d6000fd5b505050506040513d6020811015620002fc57600080fd5b50516001600160601b0319606091821b811660a0529082901b1660805260016004600062000329620003cd565b6001600160a01b0316815260208082019290925260409081016000908120805494151560ff19958616179055308152600490925290208054909116600117905562000373620003cd565b6001600160a01b031660006001600160a01b03167fddf252ad1be2c89b69c2b068fc378daa952ba7f163c4a11628f55a4df523b3ef6008546040518082815260200191505060405180910390a350505062000488565b3390565b6000546001600160a01b031690565b828054600181600116156101000203166002900490600052602060002090601f0160209004810192826200041457600085556200045f565b82601f106200042f57805160ff19168380011785556200045f565b828001600101855582156200045f579182015b828111156200045f57825182559160200191906001019062000442565b506200046d92915062000471565b5090565b5b808211156200046d576000815560010162000472565b60805160601c60a05160601c612a93620004d060003980610ec252806118f752508061098b52806120c05280612178528061219f528061228552806122ac5250612a936000f3fe6080604052600436106102135760003560e01c806352390c021161011857806395d89b41116100a0578063c49b9a801161006f578063c49b9a8014610771578063d543dbeb1461079d578063dd62ed3e146107c7578063ea2f0b3714610802578063f2fde38b146108355761021a565b806395d89b41146106c0578063a457c2d7146106d5578063a9059cbb1461070e578063af41063b146107475761021a565b8063715018a6116100e7578063715018a6146106245780637d1db4a51461063957806388f820201461064e5780638da5cb5b146106815780638ee88c53146106965761021a565b806352390c02146105765780635342acb4146105a95780636bc87c3a146105dc57806370a08231146105f15761021a565b80633685d4191161019b57806340f8007a1161016a57806340f8007a146104d2578063437823ec146104e75780634549b0391461051a57806349bd5a5e1461054c5780634a74bb02146105615761021a565b80633685d41914610427578063395093511461045a5780633b124fe7146104935780633bd5d173146104a85761021a565b80631694505e116101e25780631694505e1461034957806318160ddd1461037a57806323b872dd1461038f5780632d838119146103d2578063313ce567146103fc5761021a565b8063061c82d01461021f57806306fdde031461024b578063095ea7b3146102d557806313114a9d146103225761021a565b3661021a57005b600080fd5b34801561022b57600080fd5b506102496004803603602081101561024257600080fd5b5035610868565b005b34801561025757600080fd5b506102606108cf565b6040805160208082528351818301528351919283929083019185019080838360005b8381101561029a578181015183820152602001610282565b50505050905090810190601f1680156102c75780820380516001836020036101000a031916815260200191505b509250505060405180910390f35b3480156102e157600080fd5b5061030e600480360360408110156102f857600080fd5b506001600160a01b038135169060200135610965565b604080519115158252519081900360200190f35b34801561032e57600080fd5b50610337610983565b60408051918252519081900360200190f35b34801561035557600080fd5b5061035e610989565b604080516001600160a01b039092168252519081900360200190f35b34801561038657600080fd5b506103376109ad565b34801561039b57600080fd5b5061030e600480360360608110156103b257600080fd5b506001600160a01b038135811691602081013590911690604001356109b3565b3480156103de57600080fd5b50610337600480360360208110156103f557600080fd5b5035610a3a565b34801561040857600080fd5b50610411610a9c565b6040805160ff9092168252519081900360200190f35b34801561043357600080fd5b506102496004803603602081101561044a57600080fd5b50356001600160a01b0316610aa5565b34801561046657600080fd5b5061030e6004803603604081101561047d57600080fd5b506001600160a01b038135169060200135610c70565b34801561049f57600080fd5b50610337610cbe565b3480156104b457600080fd5b50610249600480360360208110156104cb57600080fd5b5035610cc4565b3480156104de57600080fd5b50610337610da0565b3480156104f357600080fd5b506102496004803603602081101561050a57600080fd5b50356001600160a01b0316610da6565b34801561052657600080fd5b506103376004803603604081101561053d57600080fd5b50803590602001351515610e2c565b34801561055857600080fd5b5061035e610ec0565b34801561056d57600080fd5b5061030e610ee4565b34801561058257600080fd5b506102496004803603602081101561059957600080fd5b50356001600160a01b0316610ef2565b3480156105b557600080fd5b5061030e600480360360208110156105cc57600080fd5b50356001600160a01b0316611082565b3480156105e857600080fd5b506103376110a0565b3480156105fd57600080fd5b506103376004803603602081101561061457600080fd5b50356001600160a01b03166110a6565b34801561063057600080fd5b50610249611108565b34801561064557600080fd5b506103376111b4565b34801561065a57600080fd5b5061030e6004803603602081101561067157600080fd5b50356001600160a01b03166111ba565b34801561068d57600080fd5b5061035e6111d8565b3480156106a257600080fd5b50610249600480360360208110156106b957600080fd5b50356111e7565b3480156106cc57600080fd5b5061026061124e565b3480156106e157600080fd5b5061030e600480360360408110156106f857600080fd5b506001600160a01b0381351690602001356112af565b34801561071a57600080fd5b5061030e6004803603604081101561073157600080fd5b506001600160a01b038135169060200135611317565b34801561075357600080fd5b506102496004803603602081101561076a57600080fd5b503561132b565b34801561077d57600080fd5b506102496004803603602081101561079457600080fd5b50351515611392565b3480156107a957600080fd5b50610249600480360360208110156107c057600080fd5b5035611443565b3480156107d357600080fd5b50610337600480360360408110156107ea57600080fd5b506001600160a01b03813581169160200135166114cb565b34801561080e57600080fd5b506102496004803603602081101561082557600080fd5b50356001600160a01b03166114f6565b34801561084157600080fd5b506102496004803603602081101561085857600080fd5b50356001600160a01b0316611579565b61087061167b565b6001600160a01b03166108816111d8565b6001600160a01b0316146108ca576040805162461bcd60e51b8152602060048201819052602482015260008051602061297b833981519152604482015290519081900360640190fd5b600e55565b600b8054604080516020601f600260001961010060018816150201909516949094049384018190048102820181019092528281526060939092909183018282801561095b5780601f106109305761010080835404028352916020019161095b565b820191906000526020600020905b81548152906001019060200180831161093e57829003601f168201915b5050505050905090565b600061097961097261167b565b848461167f565b5060015b92915050565b600a5490565b7f000000000000000000000000000000000000000000000000000000000000000081565b60085490565b60006109c084848461176b565b610a30846109cc61167b565b610a2b85604051806060016040528060288152602001612953602891396001600160a01b038a16600090815260036020526040812090610a0a61167b565b6001600160a01b0316815260208101919091526040016000205491906119b1565b61167f565b5060019392505050565b6000600954821115610a7d5760405162461bcd60e51b815260040180806020018281038252602a815260200180612898602a913960400191505060405180910390fd5b6000610a87611a48565b9050610a938382611a6b565b9150505b919050565b600d5460ff1690565b610aad61167b565b6001600160a01b0316610abe6111d8565b6001600160a01b031614610b07576040805162461bcd60e51b8152602060048201819052602482015260008051602061297b833981519152604482015290519081900360640190fd5b6001600160a01b03811660009081526005602052604090205460ff16610b74576040805162461bcd60e51b815260206004820152601b60248201527f4163636f756e7420697320616c726561647920696e636c756465640000000000604482015290519081900360640190fd5b60005b600654811015610c6c57816001600160a01b031660068281548110610b9857fe5b6000918252602090912001546001600160a01b03161415610c6457600680546000198101908110610bc557fe5b600091825260209091200154600680546001600160a01b039092169183908110610beb57fe5b600091825260208083209190910180546001600160a01b0319166001600160a01b039485161790559184168152600282526040808220829055600590925220805460ff191690556006805480610c3d57fe5b600082815260209020810160001990810180546001600160a01b0319169055019055610c6c565b600101610b77565b5050565b6000610979610c7d61167b565b84610a2b8560036000610c8e61167b565b6001600160a01b03908116825260208083019390935260409182016000908120918c168152925290205490611ad2565b600e5481565b6000610cce61167b565b6001600160a01b03811660009081526005602052604090205490915060ff1615610d295760405162461bcd60e51b815260040180806020018281038252602c815260200180612a0d602c913960400191505060405180910390fd5b6000610d3483611b33565b5050506001600160a01b038616600090815260016020526040902054939450610d6293925084915050611b8e565b6001600160a01b038316600090815260016020526040902055600954610d889082611b8e565b600955600a54610d989084611ad2565b600a55505050565b60105481565b610dae61167b565b6001600160a01b0316610dbf6111d8565b6001600160a01b031614610e08576040805162461bcd60e51b8152602060048201819052602482015260008051602061297b833981519152604482015290519081900360640190fd5b6001600160a01b03166000908152600460205260409020805460ff19166001179055565b6000600854831115610e85576040805162461bcd60e51b815260206004820152601f60248201527f416d6f756e74206d757374206265206c657373207468616e20737570706c7900604482015290519081900360640190fd5b81610ea5576000610e9584611b33565b5094965061097d95505050505050565b6000610eb084611b33565b5093965061097d95505050505050565b7f000000000000000000000000000000000000000000000000000000000000000081565b601454610100900460ff1681565b610efa61167b565b6001600160a01b0316610f0b6111d8565b6001600160a01b031614610f54576040805162461bcd60e51b8152602060048201819052602482015260008051602061297b833981519152604482015290519081900360640190fd5b6001600160a01b03811660009081526005602052604090205460ff1615610fc2576040805162461bcd60e51b815260206004820152601b60248201527f4163636f756e7420697320616c7265616479206578636c756465640000000000604482015290519081900360640190fd5b6001600160a01b0381166000908152600160205260409020541561101c576001600160a01b03811660009081526001602052604090205461100290610a3a565b6001600160a01b0382166000908152600260205260409020555b6001600160a01b03166000818152600560205260408120805460ff191660019081179091556006805491820181559091527ff652222313e28459528d920b65115c16c04f3efc82aaedc97be59f3f377c0d3f0180546001600160a01b0319169091179055565b6001600160a01b031660009081526004602052604090205460ff1690565b60125481565b6001600160a01b03811660009081526005602052604081205460ff16156110e657506001600160a01b038116600090815260026020526040902054610a97565b6001600160a01b03821660009081526001602052604090205461097d90610a3a565b61111061167b565b6001600160a01b03166111216111d8565b6001600160a01b03161461116a576040805162461bcd60e51b8152602060048201819052602482015260008051602061297b833981519152604482015290519081900360640190fd5b600080546040516001600160a01b03909116907f8be0079c531659141344cd1fd0a4f28419497f9722a3daafe3b4186f6b6457e0908390a3600080546001600160a01b0319169055565b60155481565b6001600160a01b031660009081526005602052604090205460ff1690565b6000546001600160a01b031690565b6111ef61167b565b6001600160a01b03166112006111d8565b6001600160a01b031614611249576040805162461bcd60e51b8152602060048201819052602482015260008051602061297b833981519152604482015290519081900360640190fd5b601255565b600c8054604080516020601f600260001961010060018816150201909516949094049384018190048102820181019092528281526060939092909183018282801561095b5780601f106109305761010080835404028352916020019161095b565b60006109796112bc61167b565b84610a2b85604051806060016040528060258152602001612a3960259139600360006112e661167b565b6001600160a01b03908116825260208083019390935260409182016000908120918d168152925290205491906119b1565b600061097961132461167b565b848461176b565b61133361167b565b6001600160a01b03166113446111d8565b6001600160a01b03161461138d576040805162461bcd60e51b8152602060048201819052602482015260008051602061297b833981519152604482015290519081900360640190fd5b601055565b61139a61167b565b6001600160a01b03166113ab6111d8565b6001600160a01b0316146113f4576040805162461bcd60e51b8152602060048201819052602482015260008051602061297b833981519152604482015290519081900360640190fd5b60148054821515610100810261ff00199092169190911790915560408051918252517f53726dfcaf90650aa7eb35524f4d3220f07413c8d6cb404cc8c18bf5591bc1599181900360200190a150565b61144b61167b565b6001600160a01b031661145c6111d8565b6001600160a01b0316146114a5576040805162461bcd60e51b8152602060048201819052602482015260008051602061297b833981519152604482015290519081900360640190fd5b6114c560646114bf83600854611beb90919063ffffffff16565b90611a6b565b60155550565b6001600160a01b03918216600090815260036020908152604080832093909416825291909152205490565b6114fe61167b565b6001600160a01b031661150f6111d8565b6001600160a01b031614611558576040805162461bcd60e51b8152602060048201819052602482015260008051602061297b833981519152604482015290519081900360640190fd5b6001600160a01b03166000908152600460205260409020805460ff19169055565b61158161167b565b6001600160a01b03166115926111d8565b6001600160a01b0316146115db576040805162461bcd60e51b8152602060048201819052602482015260008051602061297b833981519152604482015290519081900360640190fd5b6001600160a01b0381166116205760405162461bcd60e51b81526004018080602001828103825260268152602001806128c26026913960400191505060405180910390fd5b600080546040516001600160a01b03808516939216917f8be0079c531659141344cd1fd0a4f28419497f9722a3daafe3b4186f6b6457e091a3600080546001600160a01b0319166001600160a01b0392909216919091179055565b3390565b6001600160a01b0383166116c45760405162461bcd60e51b81526004018080602001828103825260248152602001806129e96024913960400191505060405180910390fd5b6001600160a01b0382166117095760405162461bcd60e51b81526004018080602001828103825260228152602001806128e86022913960400191505060405180910390fd5b6001600160a01b03808416600081815260036020908152604080832094871680845294825291829020859055815185815291517f8c5be1e5ebec7d5bd14f71427d1e84f3dd0314c0f7b2291e5b200ac8c7c3b9259281900390910190a3505050565b6001600160a01b0383166117b05760405162461bcd60e51b81526004018080602001828103825260258152602001806129c46025913960400191505060405180910390fd5b6001600160a01b0382166117f55760405162461bcd60e51b81526004018080602001828103825260238152602001806128756023913960400191505060405180910390fd5b600081116118345760405162461bcd60e51b815260040180806020018281038252602981526020018061299b6029913960400191505060405180910390fd5b61183c6111d8565b6001600160a01b0316836001600160a01b03161415801561187657506118606111d8565b6001600160a01b0316826001600160a01b031614155b156118bc576015548111156118bc5760405162461bcd60e51b815260040180806020018281038252602881526020018061290a6028913960400191505060405180910390fd5b60006118c7306110a6565b905060155481106118d757506015545b601654811080159081906118ee575060145460ff16155b801561192c57507f00000000000000000000000000000000000000000000000000000000000000006001600160a01b0316856001600160a01b031614155b801561193f5750601454610100900460ff165b1561195257601654915061195282611c44565b6001600160a01b03851660009081526004602052604090205460019060ff168061199457506001600160a01b03851660009081526004602052604090205460ff165b1561199d575060005b6119a986868684611ce1565b505050505050565b60008184841115611a405760405162461bcd60e51b81526004018080602001828103825283818151815260200191508051906020019080838360005b83811015611a055781810151838201526020016119ed565b50505050905090810190601f168015611a325780820380516001836020036101000a031916815260200191505b509250505060405180910390fd5b505050900390565b6000806000611a55611e55565b9092509050611a648282611a6b565b9250505090565b6000808211611ac1576040805162461bcd60e51b815260206004820152601a60248201527f536166654d6174683a206469766973696f6e206279207a65726f000000000000604482015290519081900360640190fd5b818381611aca57fe5b049392505050565b600082820183811015611b2c576040805162461bcd60e51b815260206004820152601b60248201527f536166654d6174683a206164646974696f6e206f766572666c6f770000000000604482015290519081900360640190fd5b9392505050565b6000806000806000806000806000806000611b4d8c611fb8565b93509350935093506000806000611b6e8f878787611b69611a48565b61200d565b919f509d509b509599509397509195509350505050919395979092949650565b600082821115611be5576040805162461bcd60e51b815260206004820152601e60248201527f536166654d6174683a207375627472616374696f6e206f766572666c6f770000604482015290519081900360640190fd5b50900390565b600082611bfa5750600061097d565b82820282848281611c0757fe5b0414611b2c5760405162461bcd60e51b81526004018080602001828103825260218152602001806129326021913960400191505060405180910390fd5b6014805460ff191660011790556000611c5e826002611a6b565b90506000611c6c8383611b8e565b905047611c788361206f565b6000611c844783611b8e565b9050611c90838261227f565b604080518581526020810183905280820185905290517f17bbfb9a6069321b6ded73bd96327c9e6b7212a5cd51ff219cd61370acafb5619181900360600190a150506014805460ff19169055505050565b80611cee57611cee61237d565b6001600160a01b03841660009081526005602052604090205460ff168015611d2f57506001600160a01b03831660009081526005602052604090205460ff16155b15611d4457611d3f8484846123ba565b611e42565b6001600160a01b03841660009081526005602052604090205460ff16158015611d8557506001600160a01b03831660009081526005602052604090205460ff165b15611d9557611d3f8484846124fe565b6001600160a01b03841660009081526005602052604090205460ff16158015611dd757506001600160a01b03831660009081526005602052604090205460ff16155b15611de757611d3f8484846125bd565b6001600160a01b03841660009081526005602052604090205460ff168015611e2757506001600160a01b03831660009081526005602052604090205460ff165b15611e3757611d3f848484612617565b611e428484846125bd565b80611e4f57611e4f6126a0565b50505050565b6009546008546000918291825b600654811015611f8657826001600060068481548110611e7e57fe5b60009182526020808320909101546001600160a01b031683528201929092526040019020541180611ee35750816002600060068481548110611ebc57fe5b60009182526020808320909101546001600160a01b03168352820192909252604001902054115b15611efa5760095460085494509450505050611fb4565b611f3a6001600060068481548110611f0e57fe5b60009182526020808320909101546001600160a01b031683528201929092526040019020548490611b8e565b9250611f7c6002600060068481548110611f5057fe5b60009182526020808320909101546001600160a01b031683528201929092526040019020548390611b8e565b9150600101611e62565b50600854600954611f9691611a6b565b821015611fae57600954600854935093505050611fb4565b90925090505b9091565b6000806000806000611fc9866126b4565b90506000611fd6876126d0565b90506000611fe3886126ec565b90506000611ffd82611ff785818d89611b8e565b90611b8e565b9993985091965094509092505050565b600080808061201c8986611beb565b9050600061202a8987611beb565b905060006120388988611beb565b905060006120468989611beb565b9050600061205a82611ff785818989611b8e565b949d949c50929a509298505050505050505050565b604080516002808252606082018352600092602083019080368337019050509050308160008151811061209e57fe5b60200260200101906001600160a01b031690816001600160a01b0316815250507f00000000000000000000000000000000000000000000000000000000000000006001600160a01b03166373b295c26040518163ffffffff1660e01b815260040160206040518083038186803b15801561211757600080fd5b505afa15801561212b573d6000803e3d6000fd5b505050506040513d602081101561214157600080fd5b505181518290600190811061215257fe5b60200260200101906001600160a01b031690816001600160a01b03168152505061219d307f00000000000000000000000000000000000000000000000000000000000000008461167f565b7f00000000000000000000000000000000000000000000000000000000000000006001600160a01b031663762b15628360008430426040518663ffffffff1660e01b81526004018086815260200185815260200180602001846001600160a01b03168152602001838152602001828103825285818151815260200191508051906020019060200280838360005b8381101561224257818101518382015260200161222a565b505050509050019650505050505050600060405180830381600087803b15801561226b57600080fd5b505af11580156119a9573d6000803e3d6000fd5b6122aa307f00000000000000000000000000000000000000000000000000000000000000008461167f565b7f00000000000000000000000000000000000000000000000000000000000000006001600160a01b031663f91b3f728230856000806122e76111d8565b426040518863ffffffff1660e01b815260040180876001600160a01b03168152602001868152602001858152602001848152602001836001600160a01b0316815260200182815260200196505050505050506060604051808303818588803b15801561235257600080fd5b505af1158015612366573d6000803e3d6000fd5b50505050506040513d6060811015611e4f57600080fd5b600e5415801561238d5750601254155b15612397576123b8565b600e8054600f55601080546011556012805460135560009283905590829055555b565b60008060008060008060006123ce88611b33565b965096509650965096509650965061241488600260008d6001600160a01b03166001600160a01b0316815260200190815260200160002054611b8e90919063ffffffff16565b6001600160a01b038b166000908152600260209081526040808320939093556001905220546124439088611b8e565b6001600160a01b03808c1660009081526001602052604080822093909355908b16815220546124729087611ad2565b6001600160a01b038a1660009081526001602052604090205561249482612708565b61249d81612791565b6124a78584612850565b886001600160a01b03168a6001600160a01b03167fddf252ad1be2c89b69c2b068fc378daa952ba7f163c4a11628f55a4df523b3ef866040518082815260200191505060405180910390a350505050505050505050565b600080600080600080600061251288611b33565b965096509650965096509650965061255887600160008d6001600160a01b03166001600160a01b0316815260200190815260200160002054611b8e90919063ffffffff16565b6001600160a01b03808c16600090815260016020908152604080832094909455918c1681526002909152205461258e9085611ad2565b6001600160a01b038a166000908152600260209081526040808320939093556001905220546124729087611ad2565b60008060008060008060006125d188611b33565b965096509650965096509650965061244387600160008d6001600160a01b03166001600160a01b0316815260200190815260200160002054611b8e90919063ffffffff16565b600080600080600080600061262b88611b33565b965096509650965096509650965061267188600260008d6001600160a01b03166001600160a01b0316815260200190815260200160002054611b8e90919063ffffffff16565b6001600160a01b038b166000908152600260209081526040808320939093556001905220546125589088611b8e565b600f54600e55601154601055601354601255565b600061097d60646114bf600e5485611beb90919063ffffffff16565b600061097d60646114bf60125485611beb90919063ffffffff16565b600061097d60646114bf60105485611beb90919063ffffffff16565b6000612712611a48565b905060006127208383611beb565b3060009081526001602052604090205490915061273d9082611ad2565b3060009081526001602090815260408083209390935560059052205460ff161561278c573060009081526002602052604090205461277b9084611ad2565b306000908152600260205260409020555b505050565b600061279b611a48565b905060006127a98383611beb565b6007546001600160a01b03166000908152600160205260409020549091506127d19082611ad2565b600780546001600160a01b03908116600090815260016020908152604080832095909555925490911681526005909152205460ff161561278c576007546001600160a01b03166000908152600260205260409020546128309084611ad2565b6007546001600160a01b0316600090815260026020526040902055505050565b60095461285d9083611b8e565b600955600a5461286d9082611ad2565b600a55505056fe45524332303a207472616e7366657220746f20746865207a65726f2061646472657373416d6f756e74206d757374206265206c657373207468616e20746f74616c207265666c656374696f6e734f776e61626c653a206e6577206f776e657220697320746865207a65726f206164647265737345524332303a20617070726f766520746f20746865207a65726f20616464726573735472616e7366657220616d6f756e74206578636565647320746865206d61785478416d6f756e742e536166654d6174683a206d756c7469706c69636174696f6e206f766572666c6f7745524332303a207472616e7366657220616d6f756e74206578636565647320616c6c6f77616e63654f776e61626c653a2063616c6c6572206973206e6f7420746865206f776e65725472616e7366657220616d6f756e74206d7573742062652067726561746572207468616e207a65726f45524332303a207472616e736665722066726f6d20746865207a65726f206164647265737345524332303a20617070726f76652066726f6d20746865207a65726f20616464726573734578636c75646564206164647265737365732063616e6e6f742063616c6c20746869732066756e6374696f6e45524332303a2064656372656173656420616c6c6f77616e63652062656c6f77207a65726fa2646970667358221220c1c0587cc97654107700df0df7f1e52b4f5218d366aab90b9ea35fd4c4954a8c64736f6c63430007060033",
  "devdoc": {
    "kind": "dev",
    "methods": {
      "allowance(address,address)": {
        "details": "Returns the remaining number of tokens that `spender` will be allowed to spend on behalf of `owner` through {transferFrom}. This is zero by default. This value changes when {approve} or {transferFrom} are called."
      },
      "approve(address,uint256)": {
        "details": "Sets `amount` as the allowance of `spender` over the caller's tokens. Returns a boolean value indicating whether the operation succeeded. IMPORTANT: Beware that changing an allowance with this method brings the risk that someone may use both the old and the new allowance by unfortunate transaction ordering. One possible solution to mitigate this race condition is to first reduce the spender's allowance to 0 and set the desired value afterwards: https://github.com/ethereum/EIPs/issues/20#issuecomment-263524729 Emits an {Approval} event."
      },
      "balanceOf(address)": {
        "details": "Returns the amount of tokens owned by `account`."
      },
      "owner()": {
        "details": "Returns the address of the current owner."
      },
      "renounceOwnership()": {
        "details": "Leaves the contract without owner. It will not be possible to call `onlyOwner` functions anymore. Can only be called by the current owner. NOTE: Renouncing ownership will leave the contract without an owner, thereby removing any functionality that is only available to the owner."
      },
      "totalSupply()": {
        "details": "Returns the amount of tokens in existence."
      },
      "transfer(address,uint256)": {
        "details": "Moves `amount` tokens from the caller's account to `recipient`. Returns a boolean value indicating whether the operation succeeded. Emits a {Transfer} event."
      },
      "transferFrom(address,address,uint256)": {
        "details": "Moves `amount` tokens from `sender` to `recipient` using the allowance mechanism. `amount` is then deducted from the caller's allowance. Returns a boolean value indicating whether the operation succeeded. Emits a {Transfer} event."
      },
      "transferOwnership(address)": {
        "details": "Transfers ownership of the contract to a new account (`newOwner`). Can only be called by the current owner."
      }
    },
    "version": 1
  },
  "userdoc": {
    "kind": "user",
    "methods": {},
    "version": 1
  },
  "storageLayout": {
    "storage": [
      {
        "astId": 984,
        "contract": "contracts/THORSMEAD.sol:THORSMEAD",
        "label": "_owner",
        "offset": 0,
        "slot": "0",
        "type": "t_address"
      },
      {
        "astId": 4721,
        "contract": "contracts/THORSMEAD.sol:THORSMEAD",
        "label": "_rOwned",
        "offset": 0,
        "slot": "1",
        "type": "t_mapping(t_address,t_uint256)"
      },
      {
        "astId": 4725,
        "contract": "contracts/THORSMEAD.sol:THORSMEAD",
        "label": "_tOwned",
        "offset": 0,
        "slot": "2",
        "type": "t_mapping(t_address,t_uint256)"
      },
      {
        "astId": 4731,
        "contract": "contracts/THORSMEAD.sol:THORSMEAD",
        "label": "_allowances",
        "offset": 0,
        "slot": "3",
        "type": "t_mapping(t_address,t_mapping(t_address,t_uint256))"
      },
      {
        "astId": 4735,
        "contract": "contracts/THORSMEAD.sol:THORSMEAD",
        "label": "_isExcludedFromFee",
        "offset": 0,
        "slot": "4",
        "type": "t_mapping(t_address,t_bool)"
      },
      {
        "astId": 4739,
        "contract": "contracts/THORSMEAD.sol:THORSMEAD",
        "label": "_isExcluded",
        "offset": 0,
        "slot": "5",
        "type": "t_mapping(t_address,t_bool)"
      },
      {
        "astId": 4742,
        "contract": "contracts/THORSMEAD.sol:THORSMEAD",
        "label": "_excluded",
        "offset": 0,
        "slot": "6",
        "type": "t_array(t_address)dyn_storage"
      },
      {
        "astId": 4744,
        "contract": "contracts/THORSMEAD.sol:THORSMEAD",
        "label": "_charityWalletAddress",
        "offset": 0,
        "slot": "7",
        "type": "t_address"
      },
      {
        "astId": 4758,
        "contract": "contracts/THORSMEAD.sol:THORSMEAD",
        "label": "_tTotal",
        "offset": 0,
        "slot": "8",
        "type": "t_uint256"
      },
      {
        "astId": 4767,
        "contract": "contracts/THORSMEAD.sol:THORSMEAD",
        "label": "_rTotal",
        "offset": 0,
        "slot": "9",
        "type": "t_uint256"
      },
      {
        "astId": 4769,
        "contract": "contracts/THORSMEAD.sol:THORSMEAD",
        "label": "_tFeeTotal",
        "offset": 0,
        "slot": "10",
        "type": "t_uint256"
      },
      {
        "astId": 4772,
        "contract": "contracts/THORSMEAD.sol:THORSMEAD",
        "label": "_name",
        "offset": 0,
        "slot": "11",
        "type": "t_string_storage"
      },
      {
        "astId": 4775,
        "contract": "contracts/THORSMEAD.sol:THORSMEAD",
        "label": "_symbol",
        "offset": 0,
        "slot": "12",
        "type": "t_string_storage"
      },
      {
        "astId": 4778,
        "contract": "contracts/THORSMEAD.sol:THORSMEAD",
        "label": "_decimals",
        "offset": 0,
        "slot": "13",
        "type": "t_uint8"
      },
      {
        "astId": 4781,
        "contract": "contracts/THORSMEAD.sol:THORSMEAD",
        "label": "_taxFee",
        "offset": 0,
        "slot": "14",
        "type": "t_uint256"
      },
      {
        "astId": 4784,
        "contract": "contracts/THORSMEAD.sol:THORSMEAD",
        "label": "_previousTaxFee",
        "offset": 0,
        "slot": "15",
        "type": "t_uint256"
      },
      {
        "astId": 4787,
        "contract": "contracts/THORSMEAD.sol:THORSMEAD",
        "label": "_charityFee",
        "offset": 0,
        "slot": "16",
        "type": "t_uint256"
      },
      {
        "astId": 4790,
        "contract": "contracts/THORSMEAD.sol:THORSMEAD",
        "label": "_previousCharityFee",
        "offset": 0,
        "slot": "17",
        "type": "t_uint256"
      },
      {
        "astId": 4793,
        "contract": "contracts/THORSMEAD.sol:THORSMEAD",
        "label": "_liquidityFee",
        "offset": 0,
        "slot": "18",
        "type": "t_uint256"
      },
      {
        "astId": 4796,
        "contract": "contracts/THORSMEAD.sol:THORSMEAD",
        "label": "_previousLiquidityFee",
        "offset": 0,
        "slot": "19",
        "type": "t_uint256"
      },
      {
        "astId": 4802,
        "contract": "contracts/THORSMEAD.sol:THORSMEAD",
        "label": "inSwapAndLiquify",
        "offset": 0,
        "slot": "20",
        "type": "t_bool"
      },
      {
        "astId": 4805,
        "contract": "contracts/THORSMEAD.sol:THORSMEAD",
        "label": "swapAndLiquifyEnabled",
        "offset": 1,
        "slot": "20",
        "type": "t_bool"
      },
      {
        "astId": 4812,
        "contract": "contracts/THORSMEAD.sol:THORSMEAD",
        "label": "_maxTxAmount",
        "offset": 0,
        "slot": "21",
        "type": "t_uint256"
      },
      {
        "astId": 4819,
        "contract": "contracts/THORSMEAD.sol:THORSMEAD",
        "label": "numTokensSellToAddToLiquidity",
        "offset": 0,
        "slot": "22",
        "type": "t_uint256"
      }
    ],
    "types": {
      "t_address": {
        "encoding": "inplace",
        "label": "address",
        "numberOfBytes": "20"
      },
      "t_array(t_address)dyn_storage": {
        "base": "t_address",
        "encoding": "dynamic_array",
        "label": "address[]",
        "numberOfBytes": "32"
      },
      "t_bool": {
        "encoding": "inplace",
        "label": "bool",
        "numberOfBytes": "1"
      },
      "t_mapping(t_address,t_bool)": {
        "encoding": "mapping",
        "key": "t_address",
        "label": "mapping(address => bool)",
        "numberOfBytes": "32",
        "value": "t_bool"
      },
      "t_mapping(t_address,t_mapping(t_address,t_uint256))": {
        "encoding": "mapping",
        "key": "t_address",
        "label": "mapping(address => mapping(address => uint256))",
        "numberOfBytes": "32",
        "value": "t_mapping(t_address,t_uint256)"
      },
      "t_mapping(t_address,t_uint256)": {
        "encoding": "mapping",
        "key": "t_address",
        "label": "mapping(address => uint256)",
        "numberOfBytes": "32",
        "value": "t_uint256"
      },
      "t_string_storage": {
        "encoding": "bytes",
        "label": "string",
        "numberOfBytes": "32"
      },
      "t_uint256": {
        "encoding": "inplace",
        "label": "uint256",
        "numberOfBytes": "32"
      },
      "t_uint8": {
        "encoding": "inplace",
        "label": "uint8",
        "numberOfBytes": "1"
      }
    }
  }
}